:1000000033C000004CC000004AC0000048C00000DF
:1000100046C0000044C0000042C0000040C00000D4
:100020003EC000003CC000003AC0000038C00000E4
:1000300036C0000034C0000032C0000030C00000F4
:100040002EC000002CC000002AC0000028C0000004
:1000500026C0000024C0000022C0000020C0000014
:100060001EC000001CC0000011241FBECFEFD8E04E
:10007000DEBFCDBF11E0A0E0B1E0E8ECF2E002C0ED
:1000800005900D92A230B107D9F711E0A2E0B1E0DE
:1000900001C01D92AA30B107E1F796D013C1B0CFCD
:1000A00084E98093BC00089584EC8093BC00809127
:1000B000BC0087FFFCCF8091BB00089584E880934B
:1000C000BC008091BC0087FFFCCF8091BB000895ED
:1000D000982F84EA8093BC008091BC0087FFFCCFFE
:1000E000809100018093BB0084E88093BC008091E4
:1000F000BC0087FFFCCF9093BB0084E88093BC00DA
:100100008091BC0087FFFCCF6093BB0084E88093A4
:10011000BC008091BC0087FFFCCF84E98093BC00C9
:100120000895982F84EA8093BC008091BC0087FFDB
:10013000FCCF809100018093BB0084E88093BC00D9
:100140008091BC0087FFFCCF9093BB0084E8809334
:10015000BC008091BC0087FFFCCF84EA8093BC0088
:100160008091BC0087FFFCCF809101018093BB0090
:1001700084E88093BC008091BC0087FFFCCF089589
:10018000D0DF84E88093BC008091BC0087FFFCCF67
:100190008091BB0094E99093BC0008958AE2F0DF5F
:1001A000682F6E7F609303018AE292CF8AE2E8DFD4
:1001B000682F6160609303018AE28ACFEFDF8EE0EF
:1001C0006091020185DFF2CFAF92BF92CF92DF92B2
:1001D000EF92FF921F93CF93DF9380E388B983E080
:1001E0008093B80081E08093B90084E08093BC00E4
:1001F000E5DF88E384B950E9A52E51E0B52E81E012
:1002000090DF52DF182F50DF90E0959587959595F8
:100210008795D12ECC248C0D9D1D90930501809344
:10022000040142DF182F40DF90E095958795959562
:100230008795F12EEE248E0D9F1D909307018093DC
:10024000060132DF182F3ADF90E095958795959556
:100250008795D12FC0E08C0F9D1F9093090180934B
:1002600008011EDF809104019091050118161906FE
:100270001CF060E070E002C068E070E08091060170
:1002800090910701181619061CF040E050E002C0DA
:1002900040E150E08091080190910901181619067B
:1002A0001CF020E030E002C020E230E0842F862BFA
:1002B000822B85B988E893E1F5013197F1F7019731
:0802C000D9F79DCFF894FFCFA0
:0202C8003A3BBF
:00000001FF
